S0110000736572766F20322E302E7372656334
S11300000C943E000C9448000C9448000C94480056
S11300100C9448000C9448000C9448000C9448003C
S11300200C9448000C9448000C9448000C9448002C
S11300300C9448000C9448000C9448000C9448001C
S11300400C9448000C9448000C9448000C9448000C
S11300500C9448000C9448000C9448000C944800FC
S11300600C9448000C9448000C9448000C944800EC
S11300700C9448000C9448000C94480011241FBEB2
S1130080CFEFD0E1DEBFCDBF0E9455000C946600D7
S11300900C94000084B5836084BD84B5806A84BDFB
S11300A085B5856085BD239A08950E944A0088E03D
S11300B087BD27E037E09DE2215030409040E1F7D2
S11300C000C000008E5F823299F7F1CFF894FFCF21
S9030000FC
